{
  "contractName": "KiCollectable",
  "abi": [
    {
      "inputs": [],
      "stateMutability": "nonpayable",
      "type": "constructor"
    },
    {
      "anonymous": false,
      "inputs": [
        {
          "indexed": true,
          "internalType": "address",
          "name": "owner",
          "type": "address"
        },
        {
          "indexed": true,
          "internalType": "address",
          "name": "approved",
          "type": "address"
        },
        {
          "indexed": true,
          "internalType": "uint256",
          "name": "tokenId",
          "type": "uint256"
        }
      ],
      "name": "Approval",
      "type": "event"
    },
    {
      "anonymous": false,
      "inputs": [
        {
          "indexed": true,
          "internalType": "address",
          "name": "owner",
          "type": "address"
        },
        {
          "indexed": true,
          "internalType": "address",
          "name": "operator",
          "type": "address"
        },
        {
          "indexed": false,
          "internalType": "bool",
          "name": "approved",
          "type": "bool"
        }
      ],
      "name": "ApprovalForAll",
      "type": "event"
    },
    {
      "anonymous": false,
      "inputs": [
        {
          "indexed": true,
          "internalType": "address",
          "name": "previousOwner",
          "type": "address"
        },
        {
          "indexed": true,
          "internalType": "address",
          "name": "newOwner",
          "type": "address"
        }
      ],
      "name": "OwnershipTransferred",
      "type": "event"
    },
    {
      "anonymous": false,
      "inputs": [
        {
          "indexed": true,
          "internalType": "address",
          "name": "from",
          "type": "address"
        },
        {
          "indexed": true,
          "internalType": "address",
          "name": "to",
          "type": "address"
        },
        {
          "indexed": true,
          "internalType": "uint256",
          "name": "tokenId",
          "type": "uint256"
        }
      ],
      "name": "Transfer",
      "type": "event"
    },
    {
      "inputs": [
        {
          "internalType": "address",
          "name": "to",
          "type": "address"
        },
        {
          "internalType": "uint256",
          "name": "tokenId",
          "type": "uint256"
        }
      ],
      "name": "approve",
      "outputs": [],
      "stateMutability": "nonpayable",
      "type": "function"
    },
    {
      "inputs": [
        {
          "internalType": "address",
          "name": "owner",
          "type": "address"
        }
      ],
      "name": "balanceOf",
      "outputs": [
        {
          "internalType": "uint256",
          "name": "",
          "type": "uint256"
        }
      ],
      "stateMutability": "view",
      "type": "function"
    },
    {
      "inputs": [
        {
          "internalType": "uint256",
          "name": "tokenId",
          "type": "uint256"
        }
      ],
      "name": "getApproved",
      "outputs": [
        {
          "internalType": "address",
          "name": "",
          "type": "address"
        }
      ],
      "stateMutability": "view",
      "type": "function"
    },
    {
      "inputs": [
        {
          "internalType": "address",
          "name": "owner",
          "type": "address"
        },
        {
          "internalType": "address",
          "name": "operator",
          "type": "address"
        }
      ],
      "name": "isApprovedForAll",
      "outputs": [
        {
          "internalType": "bool",
          "name": "",
          "type": "bool"
        }
      ],
      "stateMutability": "view",
      "type": "function"
    },
    {
      "inputs": [],
      "name": "name",
      "outputs": [
        {
          "internalType": "string",
          "name": "",
          "type": "string"
        }
      ],
      "stateMutability": "view",
      "type": "function"
    },
    {
      "inputs": [],
      "name": "owner",
      "outputs": [
        {
          "internalType": "address",
          "name": "",
          "type": "address"
        }
      ],
      "stateMutability": "view",
      "type": "function"
    },
    {
      "inputs": [
        {
          "internalType": "uint256",
          "name": "tokenId",
          "type": "uint256"
        }
      ],
      "name": "ownerOf",
      "outputs": [
        {
          "internalType": "address",
          "name": "",
          "type": "address"
        }
      ],
      "stateMutability": "view",
      "type": "function"
    },
    {
      "inputs": [],
      "name": "renounceOwnership",
      "outputs": [],
      "stateMutability": "nonpayable",
      "type": "function"
    },
    {
      "inputs": [
        {
          "internalType": "address",
          "name": "from",
          "type": "address"
        },
        {
          "internalType": "address",
          "name": "to",
          "type": "address"
        },
        {
          "internalType": "uint256",
          "name": "tokenId",
          "type": "uint256"
        }
      ],
      "name": "safeTransferFrom",
      "outputs": [],
      "stateMutability": "nonpayable",
      "type": "function"
    },
    {
      "inputs": [
        {
          "internalType": "address",
          "name": "from",
          "type": "address"
        },
        {
          "internalType": "address",
          "name": "to",
          "type": "address"
        },
        {
          "internalType": "uint256",
          "name": "tokenId",
          "type": "uint256"
        },
        {
          "internalType": "bytes",
          "name": "_data",
          "type": "bytes"
        }
      ],
      "name": "safeTransferFrom",
      "outputs": [],
      "stateMutability": "nonpayable",
      "type": "function"
    },
    {
      "inputs": [
        {
          "internalType": "address",
          "name": "operator",
          "type": "address"
        },
        {
          "internalType": "bool",
          "name": "approved",
          "type": "bool"
        }
      ],
      "name": "setApprovalForAll",
      "outputs": [],
      "stateMutability": "nonpayable",
      "type": "function"
    },
    {
      "inputs": [],
      "name": "symbol",
      "outputs": [
        {
          "internalType": "string",
          "name": "",
          "type": "string"
        }
      ],
      "stateMutability": "view",
      "type": "function"
    },
    {
      "inputs": [
        {
          "internalType": "uint256",
          "name": "index",
          "type": "uint256"
        }
      ],
      "name": "tokenByIndex",
      "outputs": [
        {
          "internalType": "uint256",
          "name": "",
          "type": "uint256"
        }
      ],
      "stateMutability": "view",
      "type": "function"
    },
    {
      "inputs": [
        {
          "internalType": "address",
          "name": "owner",
          "type": "address"
        },
        {
          "internalType": "uint256",
          "name": "index",
          "type": "uint256"
        }
      ],
      "name": "tokenOfOwnerByIndex",
      "outputs": [
        {
          "internalType": "uint256",
          "name": "",
          "type": "uint256"
        }
      ],
      "stateMutability": "view",
      "type": "function"
    },
    {
      "inputs": [],
      "name": "totalSupply",
      "outputs": [
        {
          "internalType": "uint256",
          "name": "",
          "type": "uint256"
        }
      ],
      "stateMutability": "view",
      "type": "function"
    },
    {
      "inputs": [
        {
          "internalType": "address",
          "name": "from",
          "type": "address"
        },
        {
          "internalType": "address",
          "name": "to",
          "type": "address"
        },
        {
          "internalType": "uint256",
          "name": "tokenId",
          "type": "uint256"
        }
      ],
      "name": "transferFrom",
      "outputs": [],
      "stateMutability": "nonpayable",
      "type": "function"
    },
    {
      "inputs": [
        {
          "internalType": "address",
          "name": "newOwner",
          "type": "address"
        }
      ],
      "name": "transferOwnership",
      "outputs": [],
      "stateMutability": "nonpayable",
      "type": "function"
    },
    {
      "inputs": [
        {
          "internalType": "address",
          "name": "to",
          "type": "address"
        },
        {
          "internalType": "string",
          "name": "uri",
          "type": "string"
        }
      ],
      "name": "mintToken",
      "outputs": [
        {
          "internalType": "uint256",
          "name": "",
          "type": "uint256"
        }
      ],
      "stateMutability": "nonpayable",
      "type": "function"
    },
    {
      "inputs": [
        {
          "internalType": "uint256",
          "name": "tokenId",
          "type": "uint256"
        }
      ],
      "name": "tokenURI",
      "outputs": [
        {
          "internalType": "string",
          "name": "",
          "type": "string"
        }
      ],
      "stateMutability": "view",
      "type": "function"
    },
    {
      "inputs": [
        {
          "internalType": "bytes4",
          "name": "interfaceId",
          "type": "bytes4"
        }
      ],
      "name": "supportsInterface",
      "outputs": [
        {
          "internalType": "bool",
          "name": "",
          "type": "bool"
        }
      ],
      "stateMutability": "view",
      "type": "function"
    }
  ],
  "bytecode": "0x60806040523480156200001157600080fd5b506040518060400160405280600d81526020017f4b69436f6c6c65637461626c65000000000000000000000000000000000000008152506040518060400160405280600381526020017f4b43420000000000000000000000000000000000000000000000000000000000815250816000908051906020019062000096929190620001a6565b508060019080519060200190620000af929190620001a6565b505050620000d2620000c6620000d860201b60201c565b620000e060201b60201c565b620002bb565b600033905090565b6000600b60009054906101000a900473ffffffffffffffffffffffffffffffffffffffff16905081600b60006101000a81548173ffffffffffffffffffffffffffffffffffffffff021916908373ffffffffffffffffffffffffffffffffffffffff1602179055508173ffffffffffffffffffffffffffffffffffffffff168173ffffffffffffffffffffffffffffffffffffffff167f8be0079c531659141344cd1fd0a4f28419497f9722a3daafe3b4186f6b6457e060405160405180910390a35050565b828054620001b49062000285565b90600052602060002090601f016020900481019282620001d8576000855562000224565b82601f10620001f357805160ff191683800117855562000224565b8280016001018555821562000224579182015b828111156200022357825182559160200191906001019062000206565b5b50905062000233919062000237565b5090565b5b808211156200025257600081600090555060010162000238565b5090565b7f4e487b7100000000000000000000000000000000000000000000000000000000600052602260045260246000fd5b600060028204905060018216806200029e57607f821691505b60208210811415620002b557620002b462000256565b5b50919050565b6137e480620002cb6000396000f3fe608060405234801561001057600080fd5b506004361061012c5760003560e01c80636352211e116100ad578063a22cb46511610071578063a22cb46514610357578063b88d4fde14610373578063c87b56dd1461038f578063e985e9c5146103bf578063f2fde38b146103ef5761012c565b80636352211e146102b157806370a08231146102e1578063715018a6146103115780638da5cb5b1461031b57806395d89b41146103395761012c565b806323b872dd116100f457806323b872dd146101e95780632f745c59146102055780633d02d0c91461023557806342842e0e146102655780634f6ccce7146102815761012c565b806301ffc9a71461013157806306fdde0314610161578063081812fc1461017f578063095ea7b3146101af57806318160ddd146101cb575b600080fd5b61014b600480360381019061014691906122f5565b61040b565b604051610158919061233d565b60405180910390f35b61016961041d565b60405161017691906123f1565b60405180910390f35b61019960048036038101906101949190612449565b6104af565b6040516101a691906124b7565b60405180910390f35b6101c960048036038101906101c491906124fe565b610534565b005b6101d361064c565b6040516101e0919061254d565b60405180910390f35b61020360048036038101906101fe9190612568565b610659565b005b61021f600480360381019061021a91906124fe565b6106b9565b60405161022c919061254d565b60405180910390f35b61024f600480360381019061024a91906126f0565b61075e565b60405161025c919061254d565b60405180910390f35b61027f600480360381019061027a9190612568565b610795565b005b61029b60048036038101906102969190612449565b6107b5565b6040516102a8919061254d565b60405180910390f35b6102cb60048036038101906102c69190612449565b610826565b6040516102d891906124b7565b60405180910390f35b6102fb60048036038101906102f6919061274c565b6108d8565b604051610308919061254d565b60405180910390f35b610319610990565b005b610323610a18565b60405161033091906124b7565b60405180910390f35b610341610a42565b60405161034e91906123f1565b60405180910390f35b610371600480360381019061036c91906127a5565b610ad4565b005b61038d60048036038101906103889190612886565b610aea565b005b6103a960048036038101906103a49190612449565b610b4c565b6040516103b691906123f1565b60405180910390f35b6103d960048036038101906103d49190612909565b610b5e565b6040516103e6919061233d565b60405180910390f35b6104096004803603810190610404919061274c565b610bf2565b005b600061041682610cea565b9050919050565b60606000805461042c90612978565b80601f016020809104026020016040519081016040528092919081815260200182805461045890612978565b80156104a55780601f1061047a576101008083540402835291602001916104a5565b820191906000526020600020905b81548152906001019060200180831161048857829003601f168201915b5050505050905090565b60006104ba82610d64565b6104f9576040517f08c379a00000000000000000000000000000000000000000000000000000000081526004016104f090612a1c565b60405180910390fd5b6004600083815260200190815260200160002060009054906101000a900473ffffffffffffffffffffffffffffffffffffffff169050919050565b600061053f82610826565b90508073ffffffffffffffffffffffffffffffffffffffff168373ffffffffffffffffffffffffffffffffffffffff1614156105b0576040517f08c379a00000000000000000000000000000000000000000000000000000000081526004016105a790612aae565b60405180910390fd5b8073ffffffffffffffffffffffffffffffffffffffff166105cf610dd0565b73ffffffffffffffffffffffffffffffffffffffff1614806105fe57506105fd816105f8610dd0565b610b5e565b5b61063d576040517f08c379a000000000000000000000000000000000000000000000000000000000815260040161063490612b40565b60405180910390fd5b6106478383610dd8565b505050565b6000600880549050905090565b61066a610664610dd0565b82610e91565b6106a9576040517f08c379a00000000000000000000000000000000000000000000000000000000081526004016106a090612bd2565b60405180910390fd5b6106b4838383610f6f565b505050565b60006106c4836108d8565b8210610705576040517f08c379a00000000000000000000000000000000000000000000000000000000081526004016106fc90612c64565b60405180910390fd5b600660008473ffffffffffffffffffffffffffffffffffffffff1673ffffffffffffffffffffffffffffffffffffffff168152602001908152602001600020600083815260200190815260200160002054905092915050565b60008061076b600c6111cb565b9050610777600c6111d9565b61078181846111ef565b61078b8482611263565b8091505092915050565b6107b083838360405180602001604052806000815250610aea565b505050565b60006107bf61064c565b8210610800576040517f08c379a00000000000000000000000000000000000000000000000000000000081526004016107f790612cf6565b60405180910390fd5b6008828154811061081457610813612d16565b5b90600052602060002001549050919050565b6000806002600084815260200190815260200160002060009054906101000a900473ffffffffffffffffffffffffffffffffffffffff169050600073ffffffffffffffffffffffffffffffffffffffff168173ffffffffffffffffffffffffffffffffffffffff1614156108cf576040517f08c379a00000000000000000000000000000000000000000000000000000000081526004016108c690612db7565b60405180910390fd5b80915050919050565b60008073ffffffffffffffffffffffffffffffffffffffff168273ffffffffffffffffffffffffffffffffffffffff161415610949576040517f08c379a000000000000000000000000000000000000000000000000000000000815260040161094090612e49565b60405180910390fd5b600360008373ffffffffffffffffffffffffffffffffffffffff1673ffffffffffffffffffffffffffffffffffffffff168152602001908152602001600020549050919050565b610998610dd0565b73ffffffffffffffffffffffffffffffffffffffff166109b6610a18565b73ffffffffffffffffffffffffffffffffffffffff1614610a0c576040517f08c379a0000000000000000000000000000000000000000000000000000000008152600401610a0390612eb5565b60405180910390fd5b610a166000611281565b565b6000600b60009054906101000a900473ffffffffffffffffffffffffffffffffffffffff16905090565b606060018054610a5190612978565b80601f0160208091040260200160405190810160405280929190818152602001828054610a7d90612978565b8015610aca5780601f10610a9f57610100808354040283529160200191610aca565b820191906000526020600020905b815481529060010190602001808311610aad57829003601f168201915b5050505050905090565b610ae6610adf610dd0565b8383611347565b5050565b610afb610af5610dd0565b83610e91565b610b3a576040517f08c379a0000000000000000000000000000000000000000000000000000000008152600401610b3190612bd2565b60405180910390fd5b610b46848484846114b4565b50505050565b6060610b5782611510565b9050919050565b6000600560008473ffffffffffffffffffffffffffffffffffffffff1673ffffffffffffffffffffffffffffffffffffffff16815260200190815260200160002060008373ffffffffffffffffffffffffffffffffffffffff1673ffffffffffffffffffffffffffffffffffffffff16815260200190815260200160002060009054906101000a900460ff16905092915050565b610bfa610dd0565b73ffffffffffffffffffffffffffffffffffffffff16610c18610a18565b73ffffffffffffffffffffffffffffffffffffffff1614610c6e576040517f08c379a0000000000000000000000000000000000000000000000000000000008152600401610c6590612eb5565b60405180910390fd5b600073ffffffffffffffffffffffffffffffffffffffff168173ffffffffffffffffffffffffffffffffffffffff161415610cde576040517f08c379a0000000000000000000000000000000000000000000000000000000008152600401610cd590612f47565b60405180910390fd5b610ce781611281565b50565b60007f780e9d63000000000000000000000000000000000000000000000000000000007bffffffffffffffffffffffffffffffffffffffffffffffffffffffff1916827bffffffffffffffffffffffffffffffffffffffffffffffffffffffff19161480610d5d5750610d5c82611662565b5b9050919050565b60008073ffffffffffffffffffffffffffffffffffffffff166002600084815260200190815260200160002060009054906101000a900473ffffffffffffffffffffffffffffffffffffffff1673ffffffffffffffffffffffffffffffffffffffff1614159050919050565b600033905090565b816004600083815260200190815260200160002060006101000a81548173ffffffffffffffffffffffffffffffffffffffff021916908373ffffffffffffffffffffffffffffffffffffffff160217905550808273ffffffffffffffffffffffffffffffffffffffff16610e4b83610826565b73ffffffffffffffffffffffffffffffffffffffff167f8c5be1e5ebec7d5bd14f71427d1e84f3dd0314c0f7b2291e5b200ac8c7c3b92560405160405180910390a45050565b6000610e9c82610d64565b610edb576040517f08c379a0000000000000000000000000000000000000000000000000000000008152600401610ed290612fd9565b60405180910390fd5b6000610ee683610826565b90508073ffffffffffffffffffffffffffffffffffffffff168473ffffffffffffffffffffffffffffffffffffffff161480610f5557508373ffffffffffffffffffffffffffffffffffffffff16610f3d846104af565b73ffffffffffffffffffffffffffffffffffffffff16145b80610f665750610f658185610b5e565b5b91505092915050565b8273ffffffffffffffffffffffffffffffffffffffff16610f8f82610826565b73ffffffffffffffffffffffffffffffffffffffff1614610fe5576040517f08c379a0000000000000000000000000000000000000000000000000000000008152600401610fdc9061306b565b60405180910390fd5b600073ffffffffffffffffffffffffffffffffffffffff168273ffffffffffffffffffffffffffffffffffffffff161415611055576040517f08c379a000000000000000000000000000000000000000000000000000000000815260040161104c906130fd565b60405180910390fd5b611060838383611744565b61106b600082610dd8565b6001600360008573ffffffffffffffffffffffffffffffffffffffff1673ffffffffffffffffffffffffffffffffffffffff16815260200190815260200160002060008282546110bb919061314c565b925050819055506001600360008473ffffffffffffffffffffffffffffffffffffffff1673ffffffffffffffffffffffffffffffffffffffff16815260200190815260200160002060008282546111129190613180565b92505081905550816002600083815260200190815260200160002060006101000a81548173ffffffffffffffffffffffffffffffffffffffff021916908373ffffffffffffffffffffffffffffffffffffffff160217905550808273ffffffffffffffffffffffffffffffffffffffff168473ffffffffffffffffffffffffffffffffffffffff167fddf252ad1be2c89b69c2b068fc378daa952ba7f163c4a11628f55a4df523b3ef60405160405180910390a4505050565b600081600001549050919050565b6001816000016000828254019250508190555050565b6111f882610d64565b611237576040517f08c379a000000000000000000000000000000000000000000000000000000000815260040161122e90613248565b60405180910390fd5b80600a6000848152602001908152602001600020908051906020019061125e9291906121e6565b505050565b61127d828260405180602001604052806000815250611754565b5050565b6000600b60009054906101000a900473ffffffffffffffffffffffffffffffffffffffff16905081600b60006101000a81548173ffffffffffffffffffffffffffffffffffffffff021916908373ffffffffffffffffffffffffffffffffffffffff1602179055508173ffffffffffffffffffffffffffffffffffffffff168173ffffffffffffffffffffffffffffffffffffffff167f8be0079c531659141344cd1fd0a4f28419497f9722a3daafe3b4186f6b6457e060405160405180910390a35050565b8173ffffffffffffffffffffffffffffffffffffffff168373ffffffffffffffffffffffffffffffffffffffff1614156113b6576040517f08c379a00000000000000000000000000000000000000000000000000000000081526004016113ad906132b4565b60405180910390fd5b80600560008573ffffffffffffffffffffffffffffffffffffffff1673ffffffffffffffffffffffffffffffffffffffff16815260200190815260200160002060008473ffffffffffffffffffffffffffffffffffffffff1673ffffffffffffffffffffffffffffffffffffffff16815260200190815260200160002060006101000a81548160ff0219169083151502179055508173ffffffffffffffffffffffffffffffffffffffff168373ffffffffffffffffffffffffffffffffffffffff167f17307eab39ab6107e8899845ad3d59bd9653f200f220920489ca2b5937696c31836040516114a7919061233d565b60405180910390a3505050565b6114bf848484610f6f565b6114cb848484846117af565b61150a576040517f08c379a000000000000000000000000000000000000000000000000000000000815260040161150190613346565b60405180910390fd5b50505050565b606061151b82610d64565b61155a576040517f08c379a0000000000000000000000000000000000000000000000000000000008152600401611551906133d8565b60405180910390fd5b6000600a6000848152602001908152602001600020805461157a90612978565b80601f01602080910402602001604051908101604052809291908181526020018280546115a690612978565b80156115f35780601f106115c8576101008083540402835291602001916115f3565b820191906000526020600020905b8154815290600101906020018083116115d657829003601f168201915b505050505090506000611604611937565b905060008151141561161a57819250505061165d565b60008251111561164f578082604051602001611637929190613434565b6040516020818303038152906040529250505061165d565b61165884611974565b925050505b919050565b60007f80ac58cd000000000000000000000000000000000000000000000000000000007bffffffffffffffffffffffffffffffffffffffffffffffffffffffff1916827bffffffffffffffffffffffffffffffffffffffffffffffffffffffff1916148061172d57507f5b5e139f000000000000000000000000000000000000000000000000000000007bffffffffffffffffffffffffffffffffffffffffffffffffffffffff1916827bffffffffffffffffffffffffffffffffffffffffffffffffffffffff1916145b8061173d575061173c82611a1b565b5b9050919050565b61174f838383611a85565b505050565b61175e8383611b99565b61176b60008484846117af565b6117aa576040517f08c379a00000000000000000000000000000000000000000000000000000000081526004016117a190613346565b60405180910390fd5b505050565b60006117d08473ffffffffffffffffffffffffffffffffffffffff16611d67565b1561192a578373ffffffffffffffffffffffffffffffffffffffff1663150b7a026117f9610dd0565b8786866040518563ffffffff1660e01b815260040161181b94939291906134ad565b6020604051808303816000875af192505050801561185757506040513d601f19601f82011682018060405250810190611854919061350e565b60015b6118da573d8060008114611887576040519150601f19603f3d011682016040523d82523d6000602084013e61188c565b606091505b506000815114156118d2576040517f08c379a00000000000000000000000000000000000000000000000000000000081526004016118c990613346565b60405180910390fd5b805181602001fd5b63150b7a0260e01b7bffffffffffffffffffffffffffffffffffffffffffffffffffffffff1916817bffffffffffffffffffffffffffffffffffffffffffffffffffffffff19161491505061192f565b600190505b949350505050565b60606040518060400160405280601581526020017f68747470733a2f2f697066732e696f2f697066732f0000000000000000000000815250905090565b606061197f82610d64565b6119be576040517f08c379a00000000000000000000000000000000000000000000000000000000081526004016119b5906135ad565b60405180910390fd5b60006119c8611937565b905060008151116119e85760405180602001604052806000815250611a13565b806119f284611d7a565b604051602001611a03929190613434565b6040516020818303038152906040525b915050919050565b60007f01ffc9a7000000000000000000000000000000000000000000000000000000007bffffffffffffffffffffffffffffffffffffffffffffffffffffffff1916827bffffffffffffffffffffffffffffffffffffffffffffffffffffffff1916149050919050565b611a90838383611edb565b600073ffffffffffffffffffffffffffffffffffffffff168373ffffffffffffffffffffffffffffffffffffffff161415611ad357611ace81611ee0565b611b12565b8173ffffffffffffffffffffffffffffffffffffffff168373ffffffffffffffffffffffffffffffffffffffff1614611b1157611b108382611f29565b5b5b600073ffffffffffffffffffffffffffffffffffffffff168273ffffffffffffffffffffffffffffffffffffffff161415611b5557611b5081612096565b611b94565b8273ffffffffffffffffffffffffffffffffffffffff168273ffffffffffffffffffffffffffffffffffffffff1614611b9357611b928282612167565b5b5b505050565b600073ffffffffffffffffffffffffffffffffffffffff168273ffffffffffffffffffffffffffffffffffffffff161415611c09576040517f08c379a0000000000000000000000000000000000000000000000000000000008152600401611c0090613619565b60405180910390fd5b611c1281610d64565b15611c52576040517f08c379a0000000000000000000000000000000000000000000000000000000008152600401611c4990613685565b60405180910390fd5b611c5e60008383611744565b6001600360008473ffffffffffffffffffffffffffffffffffffffff1673ffffffffffffffffffffffffffffffffffffffff1681526020019081526020016000206000828254611cae9190613180565b92505081905550816002600083815260200190815260200160002060006101000a81548173ffffffffffffffffffffffffffffffffffffffff021916908373ffffffffffffffffffffffffffffffffffffffff160217905550808273ffffffffffffffffffffffffffffffffffffffff16600073ffffffffffffffffffffffffffffffffffffffff167fddf252ad1be2c89b69c2b068fc378daa952ba7f163c4a11628f55a4df523b3ef60405160405180910390a45050565b600080823b905060008111915050919050565b60606000821415611dc2576040518060400160405280600181526020017f30000000000000000000000000000000000000000000000000000000000000008152509050611ed6565b600082905060005b60008214611df4578080611ddd906136a5565b915050600a82611ded919061371d565b9150611dca565b60008167ffffffffffffffff811115611e1057611e0f6125c5565b5b6040519080825280601f01601f191660200182016040528015611e425781602001600182028036833780820191505090505b5090505b60008514611ecf57600182611e5b919061314c565b9150600a85611e6a919061374e565b6030611e769190613180565b60f81b818381518110611e8c57611e8b612d16565b5b60200101907effffffffffffffffffffffffffffffffffffffffffffffffffffffffffffff1916908160001a905350600a85611ec8919061371d565b9450611e46565b8093505050505b919050565b505050565b6008805490506009600083815260200190815260200160002081905550600881908060018154018082558091505060019003906000526020600020016000909190919091505550565b60006001611f36846108d8565b611f40919061314c565b9050600060076000848152602001908152602001600020549050818114612025576000600660008673ffffffffffffffffffffffffffffffffffffffff1673ffffffffffffffffffffffffffffffffffffffff168152602001908152602001600020600084815260200190815260200160002054905080600660008773ffffffffffffffffffffffffffffffffffffffff1673ffffffffffffffffffffffffffffffffffffffff168152602001908152602001600020600084815260200190815260200160002081905550816007600083815260200190815260200160002081905550505b6007600084815260200190815260200160002060009055600660008573ffffffffffffffffffffffffffffffffffffffff1673ffffffffffffffffffffffffffffffffffffffff16815260200190815260200160002060008381526020019081526020016000206000905550505050565b600060016008805490506120aa919061314c565b90506000600960008481526020019081526020016000205490506000600883815481106120da576120d9612d16565b5b9060005260206000200154905080600883815481106120fc576120fb612d16565b5b90600052602060002001819055508160096000838152602001908152602001600020819055506009600085815260200190815260200160002060009055600880548061214b5761214a61377f565b5b6001900381819060005260206000200160009055905550505050565b6000612172836108d8565b905081600660008573ffffffffffffffffffffffffffffffffffffffff1673ffffffffffffffffffffffffffffffffffffffff168152602001908152602001600020600083815260200190815260200160002081905550806007600084815260200190815260200160002081905550505050565b8280546121f290612978565b90600052602060002090601f016020900481019282612214576000855561225b565b82601f1061222d57805160ff191683800117855561225b565b8280016001018555821561225b579182015b8281111561225a57825182559160200191906001019061223f565b5b509050612268919061226c565b5090565b5b8082111561228557600081600090555060010161226d565b5090565b6000604051905090565b600080fd5b600080fd5b60007fffffffff0000000000000000000000000000000000000000000000000000000082169050919050565b6122d28161229d565b81146122dd57600080fd5b50565b6000813590506122ef816122c9565b92915050565b60006020828403121561230b5761230a612293565b5b6000612319848285016122e0565b91505092915050565b60008115159050919050565b61233781612322565b82525050565b6000602082019050612352600083018461232e565b92915050565b600081519050919050565b600082825260208201905092915050565b60005b83811015612392578082015181840152602081019050612377565b838111156123a1576000848401525b50505050565b6000601f19601f8301169050919050565b60006123c382612358565b6123cd8185612363565b93506123dd818560208601612374565b6123e6816123a7565b840191505092915050565b6000602082019050818103600083015261240b81846123b8565b905092915050565b6000819050919050565b61242681612413565b811461243157600080fd5b50565b6000813590506124438161241d565b92915050565b60006020828403121561245f5761245e612293565b5b600061246d84828501612434565b91505092915050565b600073ffffffffffffffffffffffffffffffffffffffff82169050919050565b60006124a182612476565b9050919050565b6124b181612496565b82525050565b60006020820190506124cc60008301846124a8565b92915050565b6124db81612496565b81146124e657600080fd5b50565b6000813590506124f8816124d2565b92915050565b6000806040838503121561251557612514612293565b5b6000612523858286016124e9565b925050602061253485828601612434565b9150509250929050565b61254781612413565b82525050565b6000602082019050612562600083018461253e565b92915050565b60008060006060848603121561258157612580612293565b5b600061258f868287016124e9565b93505060206125a0868287016124e9565b92505060406125b186828701612434565b9150509250925092565b600080fd5b600080fd5b7f4e487b7100000000000000000000000000000000000000000000000000000000600052604160045260246000fd5b6125fd826123a7565b810181811067ffffffffffffffff8211171561261c5761261b6125c5565b5b80604052505050565b600061262f612289565b905061263b82826125f4565b919050565b600067ffffffffffffffff82111561265b5761265a6125c5565b5b612664826123a7565b9050602081019050919050565b82818337600083830152505050565b600061269361268e84612640565b612625565b9050828152602081018484840111156126af576126ae6125c0565b5b6126ba848285612671565b509392505050565b600082601f8301126126d7576126d66125bb565b5b81356126e7848260208601612680565b91505092915050565b6000806040838503121561270757612706612293565b5b6000612715858286016124e9565b925050602083013567ffffffffffffffff81111561273657612735612298565b5b612742858286016126c2565b9150509250929050565b60006020828403121561276257612761612293565b5b6000612770848285016124e9565b91505092915050565b61278281612322565b811461278d57600080fd5b50565b60008135905061279f81612779565b92915050565b600080604083850312156127bc576127bb612293565b5b60006127ca858286016124e9565b92505060206127db85828601612790565b9150509250929050565b600067ffffffffffffffff821115612800576127ff6125c5565b5b612809826123a7565b9050602081019050919050565b6000612829612824846127e5565b612625565b905082815260208101848484011115612845576128446125c0565b5b612850848285612671565b509392505050565b600082601f83011261286d5761286c6125bb565b5b813561287d848260208601612816565b91505092915050565b600080600080608085870312156128a05761289f612293565b5b60006128ae878288016124e9565b94505060206128bf878288016124e9565b93505060406128d087828801612434565b925050606085013567ffffffffffffffff8111156128f1576128f0612298565b5b6128fd87828801612858565b91505092959194509250565b600080604083850312156129205761291f612293565b5b600061292e858286016124e9565b925050602061293f858286016124e9565b9150509250929050565b7f4e487b7100000000000000000000000000000000000000000000000000000000600052602260045260246000fd5b6000600282049050600182168061299057607f821691505b602082108114156129a4576129a3612949565b5b50919050565b7f4552433732313a20617070726f76656420717565727920666f72206e6f6e657860008201527f697374656e7420746f6b656e0000000000000000000000000000000000000000602082015250565b6000612a06602c83612363565b9150612a11826129aa565b604082019050919050565b60006020820190508181036000830152612a35816129f9565b9050919050565b7f4552433732313a20617070726f76616c20746f2063757272656e74206f776e6560008201527f7200000000000000000000000000000000000000000000000000000000000000602082015250565b6000612a98602183612363565b9150612aa382612a3c565b604082019050919050565b60006020820190508181036000830152612ac781612a8b565b9050919050565b7f4552433732313a20617070726f76652063616c6c6572206973206e6f74206f7760008201527f6e6572206e6f7220617070726f76656420666f7220616c6c0000000000000000602082015250565b6000612b2a603883612363565b9150612b3582612ace565b604082019050919050565b60006020820190508181036000830152612b5981612b1d565b9050919050565b7f4552433732313a207472616e736665722063616c6c6572206973206e6f74206f60008201527f776e6572206e6f7220617070726f766564000000000000000000000000000000602082015250565b6000612bbc603183612363565b9150612bc782612b60565b604082019050919050565b60006020820190508181036000830152612beb81612baf565b9050919050565b7f455243373231456e756d657261626c653a206f776e657220696e646578206f7560008201527f74206f6620626f756e6473000000000000000000000000000000000000000000602082015250565b6000612c4e602b83612363565b9150612c5982612bf2565b604082019050919050565b60006020820190508181036000830152612c7d81612c41565b9050919050565b7f455243373231456e756d657261626c653a20676c6f62616c20696e646578206f60008201527f7574206f6620626f756e64730000000000000000000000000000000000000000602082015250565b6000612ce0602c83612363565b9150612ceb82612c84565b604082019050919050565b60006020820190508181036000830152612d0f81612cd3565b9050919050565b7f4e487b7100000000000000000000000000000000000000000000000000000000600052603260045260246000fd5b7f4552433732313a206f776e657220717565727920666f72206e6f6e657869737460008201527f656e7420746f6b656e0000000000000000000000000000000000000000000000602082015250565b6000612da1602983612363565b9150612dac82612d45565b604082019050919050565b60006020820190508181036000830152612dd081612d94565b9050919050565b7f4552433732313a2062616c616e636520717565727920666f7220746865207a6560008201527f726f206164647265737300000000000000000000000000000000000000000000602082015250565b6000612e33602a83612363565b9150612e3e82612dd7565b604082019050919050565b60006020820190508181036000830152612e6281612e26565b9050919050565b7f4f776e61626c653a2063616c6c6572206973206e6f7420746865206f776e6572600082015250565b6000612e9f602083612363565b9150612eaa82612e69565b602082019050919050565b60006020820190508181036000830152612ece81612e92565b9050919050565b7f4f776e61626c653a206e6577206f776e657220697320746865207a65726f206160008201527f6464726573730000000000000000000000000000000000000000000000000000602082015250565b6000612f31602683612363565b9150612f3c82612ed5565b604082019050919050565b60006020820190508181036000830152612f6081612f24565b9050919050565b7f4552433732313a206f70657261746f7220717565727920666f72206e6f6e657860008201527f697374656e7420746f6b656e0000000000000000000000000000000000000000602082015250565b6000612fc3602c83612363565b9150612fce82612f67565b604082019050919050565b60006020820190508181036000830152612ff281612fb6565b9050919050565b7f4552433732313a207472616e73666572206f6620746f6b656e2074686174206960008201527f73206e6f74206f776e0000000000000000000000000000000000000000000000602082015250565b6000613055602983612363565b915061306082612ff9565b604082019050919050565b6000602082019050818103600083015261308481613048565b9050919050565b7f4552433732313a207472616e7366657220746f20746865207a65726f2061646460008201527f7265737300000000000000000000000000000000000000000000000000000000602082015250565b60006130e7602483612363565b91506130f28261308b565b604082019050919050565b60006020820190508181036000830152613116816130da565b9050919050565b7f4e487b7100000000000000000000000000000000000000000000000000000000600052601160045260246000fd5b600061315782612413565b915061316283612413565b9250828210156131755761317461311d565b5b828203905092915050565b600061318b82612413565b915061319683612413565b9250827fffffffffffffffffffffffffffffffffffffffffffffffffffffffffffffffff038211156131cb576131ca61311d565b5b828201905092915050565b7f45524337323155524953746f726167653a2055524920736574206f66206e6f6e60008201527f6578697374656e7420746f6b656e000000000000000000000000000000000000602082015250565b6000613232602e83612363565b915061323d826131d6565b604082019050919050565b6000602082019050818103600083015261326181613225565b9050919050565b7f4552433732313a20617070726f766520746f2063616c6c657200000000000000600082015250565b600061329e601983612363565b91506132a982613268565b602082019050919050565b600060208201905081810360008301526132cd81613291565b9050919050565b7f4552433732313a207472616e7366657220746f206e6f6e20455243373231526560008201527f63656976657220696d706c656d656e7465720000000000000000000000000000602082015250565b6000613330603283612363565b915061333b826132d4565b604082019050919050565b6000602082019050818103600083015261335f81613323565b9050919050565b7f45524337323155524953746f726167653a2055524920717565727920666f722060008201527f6e6f6e6578697374656e7420746f6b656e000000000000000000000000000000602082015250565b60006133c2603183612363565b91506133cd82613366565b604082019050919050565b600060208201905081810360008301526133f1816133b5565b9050919050565b600081905092915050565b600061340e82612358565b61341881856133f8565b9350613428818560208601612374565b80840191505092915050565b60006134408285613403565b915061344c8284613403565b91508190509392505050565b600081519050919050565b600082825260208201905092915050565b600061347f82613458565b6134898185613463565b9350613499818560208601612374565b6134a2816123a7565b840191505092915050565b60006080820190506134c260008301876124a8565b6134cf60208301866124a8565b6134dc604083018561253e565b81810360608301526134ee8184613474565b905095945050505050565b600081519050613508816122c9565b92915050565b60006020828403121561352457613523612293565b5b6000613532848285016134f9565b91505092915050565b7f4552433732314d657461646174613a2055524920717565727920666f72206e6f60008201527f6e6578697374656e7420746f6b656e0000000000000000000000000000000000602082015250565b6000613597602f83612363565b91506135a28261353b565b604082019050919050565b600060208201905081810360008301526135c68161358a565b9050919050565b7f4552433732313a206d696e7420746f20746865207a65726f2061646472657373600082015250565b6000613603602083612363565b915061360e826135cd565b602082019050919050565b60006020820190508181036000830152613632816135f6565b9050919050565b7f4552433732313a20746f6b656e20616c7265616479206d696e74656400000000600082015250565b600061366f601c83612363565b915061367a82613639565b602082019050919050565b6000602082019050818103600083015261369e81613662565b9050919050565b60006136b082612413565b91507fffffffffffffffffffffffffffffffffffffffffffffffffffffffffffffffff8214156136e3576136e261311d565b5b600182019050919050565b7f4e487b7100000000000000000000000000000000000000000000000000000000600052601260045260246000fd5b600061372882612413565b915061373383612413565b925082613743576137426136ee565b5b828204905092915050565b600061375982612413565b915061376483612413565b925082613774576137736136ee565b5b828206905092915050565b7f4e487b7100000000000000000000000000000000000000000000000000000000600052603160045260246000fdfea2646970667358221220503c13a187b477bd5607544cb29e6db98fa3ff449565750b27bb0b4038a6cdb064736f6c634300080a0033",
  "immutableReferences": {},
  "source": "// SPDX-License-Identifier: MIT\npragma solidity >=0.8.0 <0.9.0;\n\nimport \"@openzeppelin/contracts/token/ERC721/ERC721.sol\";\nimport \"@openzeppelin/contracts/token/ERC721/extensions/ERC721Enumerable.sol\";\nimport \"@openzeppelin/contracts/token/ERC721/extensions/ERC721URIStorage.sol\";\nimport \"@openzeppelin/contracts/access/Ownable.sol\";\nimport \"@openzeppelin/contracts/utils/Counters.sol\";\n\n/**\n * @title KiCollectable\n * @dev Kick Ass Collectable (KCB), Base on Openzeppelin ERC721 contract.\n */\ncontract KiCollectable is ERC721, ERC721Enumerable, ERC721URIStorage, Ownable {\n    using Counters for Counters.Counter;\n\n    // Trade index number counter\n    Counters.Counter private _tokenIdCounter;\n\n    constructor() ERC721(\"KiCollectable\", \"KCB\") {}\n\n    function _baseURI() internal pure override returns (string memory) {\n        return \"https://ipfs.io/ipfs/\";\n    }\n\n    /**\n     * @dev Returns the total count of all trades.\n     */\n    function mintToken(address to, string memory uri) public returns (uint256) {\n        uint256 tokenId = _tokenIdCounter.current();\n        _tokenIdCounter.increment();\n        _setTokenURI(tokenId, uri);\n        _safeMint(to, tokenId);\n\n        return tokenId;\n    }\n\n    // The following functions are overrides required by Solidity.\n\n    function _beforeTokenTransfer(address from, address to, uint256 tokenId)\n        internal\n        override(ERC721, ERC721Enumerable)\n    {\n        super._beforeTokenTransfer(from, to, tokenId);\n    }\n\n    function _burn(uint256 tokenId) internal override(ERC721, ERC721URIStorage) {\n        super._burn(tokenId);\n    }\n\n    function tokenURI(uint256 tokenId)\n        public\n        view\n        override(ERC721, ERC721URIStorage)\n        returns (string memory)\n    {\n        return super.tokenURI(tokenId);\n    }\n\n    function supportsInterface(bytes4 interfaceId)\n        public\n        view\n        override(ERC721, ERC721Enumerable)\n        returns (bool)\n    {\n        return super.supportsInterface(interfaceId);\n    }\n}",
  "sourcePath": "/home/rongwei/Work/kick-nft/packages/truffle/contracts/KiCollectable.sol",
  "compiler": {
    "name": "solc",
    "version": "0.8.10+commit.fc410830.Emscripten.clang"
  },
  "schemaVersion": "3.4.3",
  "updatedAt": "2022-01-17T05:15:31.229Z",
  "devdoc": {
    "details": "Kick Ass Collectable (KCB), Base on Openzeppelin ERC721 contract.",
    "kind": "dev",
    "methods": {
      "approve(address,uint256)": {
        "details": "See {IERC721-approve}."
      },
      "balanceOf(address)": {
        "details": "See {IERC721-balanceOf}."
      },
      "getApproved(uint256)": {
        "details": "See {IERC721-getApproved}."
      },
      "isApprovedForAll(address,address)": {
        "details": "See {IERC721-isApprovedForAll}."
      },
      "mintToken(address,string)": {
        "details": "Returns the total count of all trades."
      },
      "name()": {
        "details": "See {IERC721Metadata-name}."
      },
      "owner()": {
        "details": "Returns the address of the current owner."
      },
      "ownerOf(uint256)": {
        "details": "See {IERC721-ownerOf}."
      },
      "renounceOwnership()": {
        "details": "Leaves the contract without owner. It will not be possible to call `onlyOwner` functions anymore. Can only be called by the current owner. NOTE: Renouncing ownership will leave the contract without an owner, thereby removing any functionality that is only available to the owner."
      },
      "safeTransferFrom(address,address,uint256)": {
        "details": "See {IERC721-safeTransferFrom}."
      },
      "safeTransferFrom(address,address,uint256,bytes)": {
        "details": "See {IERC721-safeTransferFrom}."
      },
      "setApprovalForAll(address,bool)": {
        "details": "See {IERC721-setApprovalForAll}."
      },
      "symbol()": {
        "details": "See {IERC721Metadata-symbol}."
      },
      "tokenByIndex(uint256)": {
        "details": "See {IERC721Enumerable-tokenByIndex}."
      },
      "tokenOfOwnerByIndex(address,uint256)": {
        "details": "See {IERC721Enumerable-tokenOfOwnerByIndex}."
      },
      "totalSupply()": {
        "details": "See {IERC721Enumerable-totalSupply}."
      },
      "transferFrom(address,address,uint256)": {
        "details": "See {IERC721-transferFrom}."
      },
      "transferOwnership(address)": {
        "details": "Transfers ownership of the contract to a new account (`newOwner`). Can only be called by the current owner."
      }
    },
    "title": "KiCollectable",
    "version": 1
  },
  "userdoc": {
    "kind": "user",
    "methods": {},
    "version": 1
  }
}