{
  "contractName": "MarketPlace",
  "abi": [
    {
      "inputs": [],
      "stateMutability": "nonpayable",
      "type": "constructor"
    },
    {
      "anonymous": false,
      "inputs": [
        {
          "indexed": true,
          "internalType": "address",
          "name": "previousOwner",
          "type": "address"
        },
        {
          "indexed": true,
          "internalType": "address",
          "name": "newOwner",
          "type": "address"
        }
      ],
      "name": "OwnershipTransferred",
      "type": "event"
    },
    {
      "anonymous": false,
      "inputs": [
        {
          "indexed": false,
          "internalType": "uint256",
          "name": "id",
          "type": "uint256"
        },
        {
          "indexed": false,
          "internalType": "bytes32",
          "name": "status",
          "type": "bytes32"
        }
      ],
      "name": "TradeStatusChange",
      "type": "event"
    },
    {
      "inputs": [],
      "name": "owner",
      "outputs": [
        {
          "internalType": "address",
          "name": "",
          "type": "address"
        }
      ],
      "stateMutability": "view",
      "type": "function"
    },
    {
      "inputs": [],
      "name": "renounceOwnership",
      "outputs": [],
      "stateMutability": "nonpayable",
      "type": "function"
    },
    {
      "inputs": [
        {
          "internalType": "address",
          "name": "newOwner",
          "type": "address"
        }
      ],
      "name": "transferOwnership",
      "outputs": [],
      "stateMutability": "nonpayable",
      "type": "function"
    },
    {
      "inputs": [
        {
          "internalType": "address",
          "name": "itemTokenAddress",
          "type": "address"
        }
      ],
      "name": "setItemToken",
      "outputs": [],
      "stateMutability": "nonpayable",
      "type": "function"
    },
    {
      "inputs": [],
      "name": "totalTrade",
      "outputs": [
        {
          "internalType": "uint256",
          "name": "",
          "type": "uint256"
        }
      ],
      "stateMutability": "view",
      "type": "function"
    },
    {
      "inputs": [
        {
          "internalType": "address",
          "name": "poster",
          "type": "address"
        }
      ],
      "name": "totalTradeOf",
      "outputs": [
        {
          "internalType": "uint256",
          "name": "",
          "type": "uint256"
        }
      ],
      "stateMutability": "view",
      "type": "function"
    },
    {
      "inputs": [
        {
          "internalType": "address",
          "name": "poster",
          "type": "address"
        },
        {
          "internalType": "uint256",
          "name": "index",
          "type": "uint256"
        }
      ],
      "name": "tradeOfPosterByIndex",
      "outputs": [
        {
          "internalType": "uint256",
          "name": "",
          "type": "uint256"
        }
      ],
      "stateMutability": "view",
      "type": "function"
    },
    {
      "inputs": [
        {
          "internalType": "uint256",
          "name": "tradeId",
          "type": "uint256"
        }
      ],
      "name": "getTrade",
      "outputs": [
        {
          "internalType": "address",
          "name": "",
          "type": "address"
        },
        {
          "internalType": "uint256",
          "name": "",
          "type": "uint256"
        },
        {
          "internalType": "uint256",
          "name": "",
          "type": "uint256"
        },
        {
          "internalType": "bytes32",
          "name": "",
          "type": "bytes32"
        }
      ],
      "stateMutability": "view",
      "type": "function"
    },
    {
      "inputs": [
        {
          "internalType": "uint256",
          "name": "itemId",
          "type": "uint256"
        },
        {
          "internalType": "uint256",
          "name": "price",
          "type": "uint256"
        }
      ],
      "name": "openTrade",
      "outputs": [],
      "stateMutability": "nonpayable",
      "type": "function"
    },
    {
      "inputs": [
        {
          "internalType": "uint256",
          "name": "tradeId",
          "type": "uint256"
        }
      ],
      "name": "executeTrade",
      "outputs": [],
      "stateMutability": "payable",
      "type": "function"
    },
    {
      "inputs": [
        {
          "internalType": "uint256",
          "name": "tradeId",
          "type": "uint256"
        }
      ],
      "name": "cancelTrade",
      "outputs": [],
      "stateMutability": "nonpayable",
      "type": "function"
    }
  ],
  "bytecode": "0x608060405234801561001057600080fd5b5061002d61002261003260201b60201c565b61003a60201b60201c565b6100fe565b600033905090565b60008060009054906101000a900473ffffffffffffffffffffffffffffffffffffffff169050816000806101000a81548173ffffffffffffffffffffffffffffffffffffffff021916908373ffffffffffffffffffffffffffffffffffffffff1602179055508173ffffffffffffffffffffffffffffffffffffffff168173ffffffffffffffffffffffffffffffffffffffff167f8be0079c531659141344cd1fd0a4f28419497f9722a3daafe3b4186f6b6457e060405160405180910390a35050565b6118628061010d6000396000f3fe60806040526004361061009c5760003560e01c8063715018a611610064578063715018a61461018c5780638da5cb5b146101a35780639919fcd9146101ce578063a89b49b8146101f9578063ac0496e114610236578063f2fde38b1461025f5761009c565b806302d2838b146100a157806309ec6cc7146100bd5780630c493fba146100e657806311b27db31461010f5780632db25e051461014c575b600080fd5b6100bb60048036038101906100b691906110cd565b610288565b005b3480156100c957600080fd5b506100e460048036038101906100df91906110cd565b6104e4565b005b3480156100f257600080fd5b5061010d600480360381019061010891906110fa565b610761565b005b34801561011b57600080fd5b5061013660048036038101906101319190611198565b610b0a565b60405161014391906111e7565b60405180910390f35b34801561015857600080fd5b50610173600480360381019061016e91906110cd565b610baf565b604051610183949392919061122a565b60405180910390f35b34801561019857600080fd5b506101a1610c6f565b005b3480156101af57600080fd5b506101b8610cf7565b6040516101c5919061126f565b60405180910390f35b3480156101da57600080fd5b506101e3610d20565b6040516101f091906111e7565b60405180910390f35b34801561020557600080fd5b50610220600480360381019061021b919061128a565b610d31565b60405161022d91906111e7565b60405180910390f35b34801561024257600080fd5b5061025d6004803603810190610258919061128a565b610d7a565b005b34801561026b57600080fd5b506102866004803603810190610281919061128a565b610eaa565b005b6000600160008381526020019081526020016000206040518060800160405290816000820160009054906101000a900473ffffffffffffffffffffffffffffffffffffffff1673ffffffffffffffffffffffffffffffffffffffff1673ffffffffffffffffffffffffffffffffffffffff168152602001600182015481526020016002820154815260200160038201548152505090507f4f70656e00000000000000000000000000000000000000000000000000000000816060015114610384576040517f08c379a000000000000000000000000000000000000000000000000000000000815260040161037b90611314565b60405180910390fd5b6000816000015190508073ffffffffffffffffffffffffffffffffffffffff166108fc83604001519081150290604051600060405180830381858888f193505050501580156103d7573d6000803e3d6000fd5b50600460009054906101000a900473ffffffffffffffffffffffffffffffffffffffff1673ffffffffffffffffffffffffffffffffffffffff166323b872dd303385602001516040518463ffffffff1660e01b815260040161043b93929190611334565b600060405180830381600087803b15801561045557600080fd5b505af1158015610469573d6000803e3d6000fd5b505050507f457865637574656400000000000000000000000000000000000000000000000060016000858152602001908152602001600020600301819055507f4d38ed2c5ea671a5ccddc331f0ebebd94a60aaf6e572543497485d4d148f9edf836040516104d79190611391565b60405180910390a1505050565b6000600160008381526020019081526020016000206040518060800160405290816000820160009054906101000a900473ffffffffffffffffffffffffffffffffffffffff1673ffffffffffffffffffffffffffffffffffffffff1673ffffffffffffffffffffffffffffffffffffffff16815260200160018201548152602001600282015481526020016003820154815250509050806000015173ffffffffffffffffffffffffffffffffffffffff163373ffffffffffffffffffffffffffffffffffffffff16146105ec576040517f08c379a00000000000000000000000000000000000000000000000000000000081526004016105e39061142a565b60405180910390fd5b7f4f70656e00000000000000000000000000000000000000000000000000000000816060015114610652576040517f08c379a000000000000000000000000000000000000000000000000000000000815260040161064990611314565b60405180910390fd5b600460009054906101000a900473ffffffffffffffffffffffffffffffffffffffff1673ffffffffffffffffffffffffffffffffffffffff166323b872dd30836000015184602001516040518463ffffffff1660e01b81526004016106b993929190611334565b600060405180830381600087803b1580156106d357600080fd5b505af11580156106e7573d6000803e3d6000fd5b505050507f43616e63656c6c6564000000000000000000000000000000000000000000000060016000848152602001908152602001600020600301819055507f4d38ed2c5ea671a5ccddc331f0ebebd94a60aaf6e572543497485d4d148f9edf826040516107559190611470565b60405180910390a15050565b3373ffffffffffffffffffffffffffffffffffffffff16600460009054906101000a900473ffffffffffffffffffffffffffffffffffffffff1673ffffffffffffffffffffffffffffffffffffffff16636352211e846040518263ffffffff1660e01b81526004016107d391906111e7565b602060405180830381865afa1580156107f0573d6000803e3d6000fd5b505050506040513d601f19601f8201168201806040525081019061081491906114ac565b73ffffffffffffffffffffffffffffffffffffffff161461086a576040517f08c379a00000000000000000000000000000000000000000000000000000000081526004016108619061154b565b60405180910390fd5b60006108766005610fa2565b90506108826005610fb0565b600460009054906101000a900473ffffffffffffffffffffffffffffffffffffffff1673ffffffffffffffffffffffffffffffffffffffff166323b872dd3330866040518463ffffffff1660e01b81526004016108e193929190611334565b600060405180830381600087803b1580156108fb57600080fd5b505af115801561090f573d6000803e3d6000fd5b5050505060405180608001604052803373ffffffffffffffffffffffffffffffffffffffff1681526020018481526020018381526020017f4f70656e000000000000000000000000000000000000000000000000000000008152506001600083815260200190815260200160002060008201518160000160006101000a81548173ffffffffffffffffffffffffffffffffffffffff021916908373ffffffffffffffffffffffffffffffffffffffff16021790555060208201518160010155604082015181600201556060820151816003015590505080600360003373ffffffffffffffffffffffffffffffffffffffff1673ffffffffffffffffffffffffffffffffffffffff1681526020019081526020016000206000600260003373ffffffffffffffffffffffffffffffffffffffff1673ffffffffffffffffffffffffffffffffffffffff16815260200190815260200160002054815260200190815260200160002081905550600260003373ffffffffffffffffffffffffffffffffffffffff1673ffffffffffffffffffffffffffffffffffffffff1681526020019081526020016000206000815480929190610ac99061159a565b91905055507f4d38ed2c5ea671a5ccddc331f0ebebd94a60aaf6e572543497485d4d148f9edf81604051610afd9190611609565b60405180910390a1505050565b6000610b1583610d31565b8210610b56576040517f08c379a0000000000000000000000000000000000000000000000000000000008152600401610b4d9061167c565b60405180910390fd5b600360008473ffffffffffffffffffffffffffffffffffffffff1673ffffffffffffffffffffffffffffffffffffffff168152602001908152602001600020600083815260200190815260200160002054905092915050565b6000806000806000600160008781526020019081526020016000206040518060800160405290816000820160009054906101000a900473ffffffffffffffffffffffffffffffffffffffff1673ffffffffffffffffffffffffffffffffffffffff1673ffffffffffffffffffffffffffffffffffffffff1681526020016001820154815260200160028201548152602001600382015481525050905080600001518160200151826040015183606001519450945094509450509193509193565b610c77610fc6565b73ffffffffffffffffffffffffffffffffffffffff16610c95610cf7565b73ffffffffffffffffffffffffffffffffffffffff1614610ceb576040517f08c379a0000000000000000000000000000000000000000000000000000000008152600401610ce2906116e8565b60405180910390fd5b610cf56000610fce565b565b60008060009054906101000a900473ffffffffffffffffffffffffffffffffffffffff16905090565b6000610d2c6005610fa2565b905090565b6000600260008373ffffffffffffffffffffffffffffffffffffffff1673ffffffffffffffffffffffffffffffffffffffff168152602001908152602001600020549050919050565b610d82610fc6565b73ffffffffffffffffffffffffffffffffffffffff16610da0610cf7565b73ffffffffffffffffffffffffffffffffffffffff1614610df6576040517f08c379a0000000000000000000000000000000000000000000000000000000008152600401610ded906116e8565b60405180910390fd5b600073ffffffffffffffffffffffffffffffffffffffff168173ffffffffffffffffffffffffffffffffffffffff161415610e66576040517f08c379a0000000000000000000000000000000000000000000000000000000008152600401610e5d9061177a565b60405180910390fd5b80600460006101000a81548173ffffffffffffffffffffffffffffffffffffffff021916908373ffffffffffffffffffffffffffffffffffffffff16021790555050565b610eb2610fc6565b73ffffffffffffffffffffffffffffffffffffffff16610ed0610cf7565b73ffffffffffffffffffffffffffffffffffffffff1614610f26576040517f08c379a0000000000000000000000000000000000000000000000000000000008152600401610f1d906116e8565b60405180910390fd5b600073ffffffffffffffffffffffffffffffffffffffff168173ffffffffffffffffffffffffffffffffffffffff161415610f96576040517f08c379a0000000000000000000000000000000000000000000000000000000008152600401610f8d9061180c565b60405180910390fd5b610f9f81610fce565b50565b600081600001549050919050565b6001816000016000828254019250508190555050565b600033905090565b60008060009054906101000a900473ffffffffffffffffffffffffffffffffffffffff169050816000806101000a81548173ffffffffffffffffffffffffffffffffffffffff021916908373ffffffffffffffffffffffffffffffffffffffff1602179055508173ffffffffffffffffffffffffffffffffffffffff168173ffffffffffffffffffffffffffffffffffffffff167f8be0079c531659141344cd1fd0a4f28419497f9722a3daafe3b4186f6b6457e060405160405180910390a35050565b600080fd5b6000819050919050565b6110aa81611097565b81146110b557600080fd5b50565b6000813590506110c7816110a1565b92915050565b6000602082840312156110e3576110e2611092565b5b60006110f1848285016110b8565b91505092915050565b6000806040838503121561111157611110611092565b5b600061111f858286016110b8565b9250506020611130858286016110b8565b9150509250929050565b600073ffffffffffffffffffffffffffffffffffffffff82169050919050565b60006111658261113a565b9050919050565b6111758161115a565b811461118057600080fd5b50565b6000813590506111928161116c565b92915050565b600080604083850312156111af576111ae611092565b5b60006111bd85828601611183565b92505060206111ce858286016110b8565b9150509250929050565b6111e181611097565b82525050565b60006020820190506111fc60008301846111d8565b92915050565b61120b8161115a565b82525050565b6000819050919050565b61122481611211565b82525050565b600060808201905061123f6000830187611202565b61124c60208301866111d8565b61125960408301856111d8565b611266606083018461121b565b95945050505050565b60006020820190506112846000830184611202565b92915050565b6000602082840312156112a05761129f611092565b5b60006112ae84828501611183565b91505092915050565b600082825260208201905092915050565b7f5472616465206973206e6f74204f70656e2e0000000000000000000000000000600082015250565b60006112fe6012836112b7565b9150611309826112c8565b602082019050919050565b6000602082019050818103600083015261132d816112f1565b9050919050565b60006060820190506113496000830186611202565b6113566020830185611202565b61136360408301846111d8565b949350505050565b7f4578656375746564000000000000000000000000000000000000000000000000815250565b60006040820190506113a660008301846111d8565b6113b26020830161136b565b92915050565b7f54726164652063616e2062652063616e63656c6c6564206f6e6c79206279207060008201527f6f737465722e0000000000000000000000000000000000000000000000000000602082015250565b60006114146026836112b7565b915061141f826113b8565b604082019050919050565b6000602082019050818103600083015261144381611407565b9050919050565b7f43616e63656c6c65640000000000000000000000000000000000000000000000815250565b600060408201905061148560008301846111d8565b6114916020830161144a565b92915050565b6000815190506114a68161116c565b92915050565b6000602082840312156114c2576114c1611092565b5b60006114d084828501611497565b91505092915050565b7f596f752063616e206f6e6c792073656c6c20796f7572206f776e656420746f6b60008201527f656e2e0000000000000000000000000000000000000000000000000000000000602082015250565b60006115356023836112b7565b9150611540826114d9565b604082019050919050565b6000602082019050818103600083015261156481611528565b9050919050565b7f4e487b7100000000000000000000000000000000000000000000000000000000600052601160045260246000fd5b60006115a582611097565b91507fffffffffffffffffffffffffffffffffffffffffffffffffffffffffffffffff8214156115d8576115d761156b565b5b600182019050919050565b7f4f70656e00000000000000000000000000000000000000000000000000000000815250565b600060408201905061161e60008301846111d8565b61162a602083016115e3565b92915050565b7f706f7374657220696e646578206f7574206f6620626f756e6473000000000000600082015250565b6000611666601a836112b7565b915061167182611630565b602082019050919050565b6000602082019050818103600083015261169581611659565b9050919050565b7f4f776e61626c653a2063616c6c6572206973206e6f7420746865206f776e6572600082015250565b60006116d26020836112b7565b91506116dd8261169c565b602082019050919050565b60006020820190508181036000830152611701816116c5565b9050919050565b7f6974656d20746f6b656e20616464726573732073686f756c64206e6f7420626560008201527f20706c61696e2e00000000000000000000000000000000000000000000000000602082015250565b60006117646027836112b7565b915061176f82611708565b604082019050919050565b6000602082019050818103600083015261179381611757565b9050919050565b7f4f776e61626c653a206e6577206f776e657220697320746865207a65726f206160008201527f6464726573730000000000000000000000000000000000000000000000000000602082015250565b60006117f66026836112b7565b91506118018261179a565b604082019050919050565b60006020820190508181036000830152611825816117e9565b905091905056fea2646970667358221220001d882dfda4c8b5fbaa491c194aac5dccdf905a7287cce86b90660143be492a64736f6c634300080a0033",
  "immutableReferences": {},
  "source": "// SPDX-License-Identifier: MIT\npragma solidity >=0.8.0 <0.9.0;\n\nimport \"@openzeppelin/contracts/token/ERC20/IERC20.sol\";\nimport \"@openzeppelin/contracts/token/ERC721/IERC721.sol\";\nimport \"@openzeppelin/contracts/access/Ownable.sol\";\nimport \"@openzeppelin/contracts/utils/Counters.sol\";\n\n/**\n * @title MarketPlace\n * @dev Implements the simple market place. \n * Seller can open a sell order, then buyers can directly buy it.\n */\ncontract MarketPlace is Ownable {\n    using Counters for Counters.Counter;\n\n    event TradeStatusChange(uint256 id, bytes32 status);\n\n    struct Trade {\n        address poster;\n        uint256 item;\n        uint256 price;\n        bytes32 status; // Open, Executed, Cancelled\n    }\n\n    // Mapping index number to trade\n    mapping(uint256 => Trade) private _trades;\n\n    // Mapping owner address to trade count\n    mapping(address => uint256) private _totals;\n\n    // Mapping from owner to list of owned trade IDs\n    mapping(address => mapping(uint256 => uint256)) private _ownedTrades;\n\n    // NFT Contract for trading\n    IERC721 private _itemToken;\n\n    // Trade index number counter\n    Counters.Counter private _tradeIdCounter;\n\n    constructor() {}\n\n    /**\n     * @dev Set the item token contract.\n     * @param itemTokenAddress The address of the ERC721 contract.\n     */\n    function setItemToken(address itemTokenAddress) public onlyOwner {\n        require(itemTokenAddress != address(0), \"item token address should not be plain.\");\n        _itemToken = IERC721(itemTokenAddress);\n    }\n\n    /**\n     * @dev Returns the total count of all trades.\n     */\n    function totalTrade() public view returns (uint256) {\n        return _tradeIdCounter.current();\n    }\n\n    /**\n     * @dev Returns the trade count for the nft owner.\n     * @param poster The address of the nft owner.\n     */\n    function totalTradeOf(address poster) public view returns (uint256) {\n        return _totals[poster];\n    }\n\n    /**\n     * @dev Returns the trade id with then specified index number of the poster.\n     * @param poster The address of the nft owner.\n     * @param index The index number.\n     */\n    function tradeOfPosterByIndex(address poster, uint256 index) public view returns (uint256) {\n        require(index < totalTradeOf(poster), \"poster index out of bounds\");\n        return _ownedTrades[poster][index];\n    }\n\n    /**\n     * @dev Returns the details for a trade.\n     * @param tradeId The id for the trade.\n     */\n    function getTrade(uint256 tradeId) public view returns(address, uint256, uint256, bytes32) {\n        Trade memory trade = _trades[tradeId];\n        return (trade.poster, trade.item, trade.price, trade.status);\n    }\n\n    /**\n     * @dev Opens a new trade. Puts item in escrow.\n     * @param itemId The id for the item to trade.\n     * @param price The amount of currency for which to trade the item.\n     */\n    function openTrade(uint256 itemId, uint256 price) public {\n        require(_itemToken.ownerOf(itemId) == msg.sender, \"You can only sell your owned token.\");\n\n        uint256 tradeId = _tradeIdCounter.current();\n        _tradeIdCounter.increment();\n\n        _itemToken.transferFrom(msg.sender, address(this), itemId);\n\n        _trades[tradeId] = Trade({\n            poster: msg.sender,\n            item: itemId,\n            price: price,\n            status: \"Open\"\n        });\n\n        _ownedTrades[msg.sender][_totals[msg.sender]] = tradeId;\n        _totals[msg.sender]++;\n\n        emit TradeStatusChange(tradeId, \"Open\");\n    }\n\n    /**\n     * @dev Executes a trade.\n     * @param tradeId The id of an existing trade\n     */\n    function executeTrade(uint256 tradeId) public payable {\n        Trade memory trade = _trades[tradeId];\n        require(trade.status == \"Open\", \"Trade is not Open.\");\n\n        address payable poster = payable(trade.poster);\n        poster.transfer(trade.price);\n\n        _itemToken.transferFrom(address(this), msg.sender, trade.item);\n        _trades[tradeId].status = \"Executed\";\n\n        emit TradeStatusChange(tradeId, \"Executed\");\n    }\n\n    /**\n     * @dev Cancels a trade by the poster.\n     * @param tradeId The id for the trade to be cancelled.\n     */\n    function cancelTrade(uint256 tradeId) public {\n        Trade memory trade = _trades[tradeId];\n        require(\n            msg.sender == trade.poster,\n            \"Trade can be cancelled only by poster.\"\n        );\n        require(trade.status == \"Open\", \"Trade is not Open.\");\n        _itemToken.transferFrom(address(this), trade.poster, trade.item);\n        _trades[tradeId].status = \"Cancelled\";\n\n        emit TradeStatusChange(tradeId, \"Cancelled\");\n    }\n}",
  "sourcePath": "/home/rongwei/Work/kick-nft/packages/truffle/contracts/MarketPlace.sol",
  "compiler": {
    "name": "solc",
    "version": "0.8.10+commit.fc410830.Emscripten.clang"
  },
  "schemaVersion": "3.4.3",
  "updatedAt": "2021-12-20T13:35:55.000Z",
  "devdoc": {
    "details": "Implements the simple market place.  Seller can open a sell order, then buyers can directly buy it.",
    "kind": "dev",
    "methods": {
      "cancelTrade(uint256)": {
        "details": "Cancels a trade by the poster.",
        "params": {
          "tradeId": "The id for the trade to be cancelled."
        }
      },
      "executeTrade(uint256)": {
        "details": "Executes a trade.",
        "params": {
          "tradeId": "The id of an existing trade"
        }
      },
      "getTrade(uint256)": {
        "details": "Returns the details for a trade.",
        "params": {
          "tradeId": "The id for the trade."
        }
      },
      "openTrade(uint256,uint256)": {
        "details": "Opens a new trade. Puts item in escrow.",
        "params": {
          "itemId": "The id for the item to trade.",
          "price": "The amount of currency for which to trade the item."
        }
      },
      "owner()": {
        "details": "Returns the address of the current owner."
      },
      "renounceOwnership()": {
        "details": "Leaves the contract without owner. It will not be possible to call `onlyOwner` functions anymore. Can only be called by the current owner. NOTE: Renouncing ownership will leave the contract without an owner, thereby removing any functionality that is only available to the owner."
      },
      "setItemToken(address)": {
        "details": "Set the item token contract.",
        "params": {
          "itemTokenAddress": "The address of the ERC721 contract."
        }
      },
      "totalTrade()": {
        "details": "Returns the total count of all trades."
      },
      "totalTradeOf(address)": {
        "details": "Returns the trade count for the nft owner.",
        "params": {
          "poster": "The address of the nft owner."
        }
      },
      "tradeOfPosterByIndex(address,uint256)": {
        "details": "Returns the trade id with then specified index number of the poster.",
        "params": {
          "index": "The index number.",
          "poster": "The address of the nft owner."
        }
      },
      "transferOwnership(address)": {
        "details": "Transfers ownership of the contract to a new account (`newOwner`). Can only be called by the current owner."
      }
    },
    "title": "MarketPlace",
    "version": 1
  },
  "userdoc": {
    "kind": "user",
    "methods": {},
    "version": 1
  }
}