{
  "contractName": "MarketPlace",
  "abi": [
    {
      "inputs": [],
      "stateMutability": "nonpayable",
      "type": "constructor"
    },
    {
      "anonymous": false,
      "inputs": [
        {
          "indexed": true,
          "internalType": "address",
          "name": "previousOwner",
          "type": "address"
        },
        {
          "indexed": true,
          "internalType": "address",
          "name": "newOwner",
          "type": "address"
        }
      ],
      "name": "OwnershipTransferred",
      "type": "event"
    },
    {
      "anonymous": false,
      "inputs": [
        {
          "indexed": false,
          "internalType": "uint256",
          "name": "id",
          "type": "uint256"
        },
        {
          "indexed": false,
          "internalType": "bytes32",
          "name": "status",
          "type": "bytes32"
        }
      ],
      "name": "TradeStatusChange",
      "type": "event"
    },
    {
      "inputs": [],
      "name": "owner",
      "outputs": [
        {
          "internalType": "address",
          "name": "",
          "type": "address"
        }
      ],
      "stateMutability": "view",
      "type": "function",
      "constant": true
    },
    {
      "inputs": [],
      "name": "renounceOwnership",
      "outputs": [],
      "stateMutability": "nonpayable",
      "type": "function"
    },
    {
      "inputs": [
        {
          "internalType": "address",
          "name": "newOwner",
          "type": "address"
        }
      ],
      "name": "transferOwnership",
      "outputs": [],
      "stateMutability": "nonpayable",
      "type": "function"
    },
    {
      "inputs": [
        {
          "internalType": "address",
          "name": "itemTokenAddress",
          "type": "address"
        }
      ],
      "name": "setItemToken",
      "outputs": [],
      "stateMutability": "nonpayable",
      "type": "function"
    },
    {
      "inputs": [],
      "name": "totalTrade",
      "outputs": [
        {
          "internalType": "uint256",
          "name": "",
          "type": "uint256"
        }
      ],
      "stateMutability": "view",
      "type": "function",
      "constant": true
    },
    {
      "inputs": [
        {
          "internalType": "address",
          "name": "poster",
          "type": "address"
        }
      ],
      "name": "totalTradeOf",
      "outputs": [
        {
          "internalType": "uint256",
          "name": "",
          "type": "uint256"
        }
      ],
      "stateMutability": "view",
      "type": "function",
      "constant": true
    },
    {
      "inputs": [
        {
          "internalType": "address",
          "name": "poster",
          "type": "address"
        },
        {
          "internalType": "uint256",
          "name": "index",
          "type": "uint256"
        }
      ],
      "name": "tradeOfPosterByIndex",
      "outputs": [
        {
          "internalType": "uint256",
          "name": "",
          "type": "uint256"
        }
      ],
      "stateMutability": "view",
      "type": "function",
      "constant": true
    },
    {
      "inputs": [
        {
          "internalType": "uint256",
          "name": "tradeId",
          "type": "uint256"
        }
      ],
      "name": "getTrade",
      "outputs": [
        {
          "internalType": "address",
          "name": "",
          "type": "address"
        },
        {
          "internalType": "uint256",
          "name": "",
          "type": "uint256"
        },
        {
          "internalType": "uint256",
          "name": "",
          "type": "uint256"
        },
        {
          "internalType": "bytes32",
          "name": "",
          "type": "bytes32"
        }
      ],
      "stateMutability": "view",
      "type": "function",
      "constant": true
    },
    {
      "inputs": [
        {
          "internalType": "uint256",
          "name": "itemId",
          "type": "uint256"
        },
        {
          "internalType": "uint256",
          "name": "price",
          "type": "uint256"
        }
      ],
      "name": "openTrade",
      "outputs": [],
      "stateMutability": "nonpayable",
      "type": "function"
    },
    {
      "inputs": [
        {
          "internalType": "uint256",
          "name": "tradeId",
          "type": "uint256"
        }
      ],
      "name": "executeTrade",
      "outputs": [],
      "stateMutability": "payable",
      "type": "function",
      "payable": true
    },
    {
      "inputs": [
        {
          "internalType": "uint256",
          "name": "tradeId",
          "type": "uint256"
        }
      ],
      "name": "cancelTrade",
      "outputs": [],
      "stateMutability": "nonpayable",
      "type": "function"
    }
  ],
  "bytecode": "0x608060405234801561001057600080fd5b5061002d61002261003260201b60201c565b61003a60201b60201c565b6100fe565b600033905090565b60008060009054906101000a900473ffffffffffffffffffffffffffffffffffffffff169050816000806101000a81548173ffffffffffffffffffffffffffffffffffffffff021916908373ffffffffffffffffffffffffffffffffffffffff1602179055508173ffffffffffffffffffffffffffffffffffffffff168173ffffffffffffffffffffffffffffffffffffffff167f8be0079c531659141344cd1fd0a4f28419497f9722a3daafe3b4186f6b6457e060405160405180910390a35050565b6119158061010d6000396000f3fe60806040526004361061009c5760003560e01c8063715018a611610064578063715018a61461018c5780638da5cb5b146101a35780639919fcd9146101ce578063a89b49b8146101f9578063ac0496e114610236578063f2fde38b1461025f5761009c565b806302d2838b146100a157806309ec6cc7146100bd5780630c493fba146100e657806311b27db31461010f5780632db25e051461014c575b600080fd5b6100bb60048036038101906100b69190611114565b610288565b005b3480156100c957600080fd5b506100e460048036038101906100df9190611114565b61052b565b005b3480156100f257600080fd5b5061010d60048036038101906101089190611141565b6107a8565b005b34801561011b57600080fd5b50610136600480360381019061013191906111df565b610b51565b604051610143919061122e565b60405180910390f35b34801561015857600080fd5b50610173600480360381019061016e9190611114565b610bf6565b6040516101839493929190611271565b60405180910390f35b34801561019857600080fd5b506101a1610cb6565b005b3480156101af57600080fd5b506101b8610d3e565b6040516101c591906112b6565b60405180910390f35b3480156101da57600080fd5b506101e3610d67565b6040516101f0919061122e565b60405180910390f35b34801561020557600080fd5b50610220600480360381019061021b91906112d1565b610d78565b60405161022d919061122e565b60405180910390f35b34801561024257600080fd5b5061025d600480360381019061025891906112d1565b610dc1565b005b34801561026b57600080fd5b50610286600480360381019061028191906112d1565b610ef1565b005b6000600160008381526020019081526020016000206040518060800160405290816000820160009054906101000a900473ffffffffffffffffffffffffffffffffffffffff1673ffffffffffffffffffffffffffffffffffffffff1673ffffffffffffffffffffffffffffffffffffffff168152602001600182015481526020016002820154815260200160038201548152505090507f4f70656e00000000000000000000000000000000000000000000000000000000816060015114610384576040517f08c379a000000000000000000000000000000000000000000000000000000000815260040161037b9061135b565b60405180910390fd5b80604001513410156103cb576040517f08c379a00000000000000000000000000000000000000000000000000000000081526004016103c2906113c7565b60405180910390fd5b6000816000015190508073ffffffffffffffffffffffffffffffffffffffff166108fc83604001519081150290604051600060405180830381858888f1935050505015801561041e573d6000803e3d6000fd5b50600460009054906101000a900473ffffffffffffffffffffffffffffffffffffffff1673ffffffffffffffffffffffffffffffffffffffff166323b872dd303385602001516040518463ffffffff1660e01b8152600401610482939291906113e7565b600060405180830381600087803b15801561049c57600080fd5b505af11580156104b0573d6000803e3d6000fd5b505050507f457865637574656400000000000000000000000000000000000000000000000060016000858152602001908152602001600020600301819055507f4d38ed2c5ea671a5ccddc331f0ebebd94a60aaf6e572543497485d4d148f9edf8360405161051e9190611444565b60405180910390a1505050565b6000600160008381526020019081526020016000206040518060800160405290816000820160009054906101000a900473ffffffffffffffffffffffffffffffffffffffff1673ffffffffffffffffffffffffffffffffffffffff1673ffffffffffffffffffffffffffffffffffffffff16815260200160018201548152602001600282015481526020016003820154815250509050806000015173ffffffffffffffffffffffffffffffffffffffff163373ffffffffffffffffffffffffffffffffffffffff1614610633576040517f08c379a000000000000000000000000000000000000000000000000000000000815260040161062a906114dd565b60405180910390fd5b7f4f70656e00000000000000000000000000000000000000000000000000000000816060015114610699576040517f08c379a00000000000000000000000000000000000000000000000000000000081526004016106909061135b565b60405180910390fd5b600460009054906101000a900473ffffffffffffffffffffffffffffffffffffffff1673ffffffffffffffffffffffffffffffffffffffff166323b872dd30836000015184602001516040518463ffffffff1660e01b8152600401610700939291906113e7565b600060405180830381600087803b15801561071a57600080fd5b505af115801561072e573d6000803e3d6000fd5b505050507f43616e63656c6c6564000000000000000000000000000000000000000000000060016000848152602001908152602001600020600301819055507f4d38ed2c5ea671a5ccddc331f0ebebd94a60aaf6e572543497485d4d148f9edf8260405161079c9190611523565b60405180910390a15050565b3373ffffffffffffffffffffffffffffffffffffffff16600460009054906101000a900473ffffffffffffffffffffffffffffffffffffffff1673ffffffffffffffffffffffffffffffffffffffff16636352211e846040518263ffffffff1660e01b815260040161081a919061122e565b602060405180830381865afa158015610837573d6000803e3d6000fd5b505050506040513d601f19601f8201168201806040525081019061085b919061155f565b73ffffffffffffffffffffffffffffffffffffffff16146108b1576040517f08c379a00000000000000000000000000000000000000000000000000000000081526004016108a8906115fe565b60405180910390fd5b60006108bd6005610fe9565b90506108c96005610ff7565b600460009054906101000a900473ffffffffffffffffffffffffffffffffffffffff1673ffffffffffffffffffffffffffffffffffffffff166323b872dd3330866040518463ffffffff1660e01b8152600401610928939291906113e7565b600060405180830381600087803b15801561094257600080fd5b505af1158015610956573d6000803e3d6000fd5b5050505060405180608001604052803373ffffffffffffffffffffffffffffffffffffffff1681526020018481526020018381526020017f4f70656e000000000000000000000000000000000000000000000000000000008152506001600083815260200190815260200160002060008201518160000160006101000a81548173ffffffffffffffffffffffffffffffffffffffff021916908373ffffffffffffffffffffffffffffffffffffffff16021790555060208201518160010155604082015181600201556060820151816003015590505080600360003373ffffffffffffffffffffffffffffffffffffffff1673ffffffffffffffffffffffffffffffffffffffff1681526020019081526020016000206000600260003373ffffffffffffffffffffffffffffffffffffffff1673ffffffffffffffffffffffffffffffffffffffff16815260200190815260200160002054815260200190815260200160002081905550600260003373ffffffffffffffffffffffffffffffffffffffff1673ffffffffffffffffffffffffffffffffffffffff1681526020019081526020016000206000815480929190610b109061164d565b91905055507f4d38ed2c5ea671a5ccddc331f0ebebd94a60aaf6e572543497485d4d148f9edf81604051610b4491906116bc565b60405180910390a1505050565b6000610b5c83610d78565b8210610b9d576040517f08c379a0000000000000000000000000000000000000000000000000000000008152600401610b949061172f565b60405180910390fd5b600360008473ffffffffffffffffffffffffffffffffffffffff1673ffffffffffffffffffffffffffffffffffffffff168152602001908152602001600020600083815260200190815260200160002054905092915050565b6000806000806000600160008781526020019081526020016000206040518060800160405290816000820160009054906101000a900473ffffffffffffffffffffffffffffffffffffffff1673ffffffffffffffffffffffffffffffffffffffff1673ffffffffffffffffffffffffffffffffffffffff1681526020016001820154815260200160028201548152602001600382015481525050905080600001518160200151826040015183606001519450945094509450509193509193565b610cbe61100d565b73ffffffffffffffffffffffffffffffffffffffff16610cdc610d3e565b73ffffffffffffffffffffffffffffffffffffffff1614610d32576040517f08c379a0000000000000000000000000000000000000000000000000000000008152600401610d299061179b565b60405180910390fd5b610d3c6000611015565b565b60008060009054906101000a900473ffffffffffffffffffffffffffffffffffffffff16905090565b6000610d736005610fe9565b905090565b6000600260008373ffffffffffffffffffffffffffffffffffffffff1673ffffffffffffffffffffffffffffffffffffffff168152602001908152602001600020549050919050565b610dc961100d565b73ffffffffffffffffffffffffffffffffffffffff16610de7610d3e565b73ffffffffffffffffffffffffffffffffffffffff1614610e3d576040517f08c379a0000000000000000000000000000000000000000000000000000000008152600401610e349061179b565b60405180910390fd5b600073ffffffffffffffffffffffffffffffffffffffff168173ffffffffffffffffffffffffffffffffffffffff161415610ead576040517f08c379a0000000000000000000000000000000000000000000000000000000008152600401610ea49061182d565b60405180910390fd5b80600460006101000a81548173ffffffffffffffffffffffffffffffffffffffff021916908373ffffffffffffffffffffffffffffffffffffffff16021790555050565b610ef961100d565b73ffffffffffffffffffffffffffffffffffffffff16610f17610d3e565b73ffffffffffffffffffffffffffffffffffffffff1614610f6d576040517f08c379a0000000000000000000000000000000000000000000000000000000008152600401610f649061179b565b60405180910390fd5b600073ffffffffffffffffffffffffffffffffffffffff168173ffffffffffffffffffffffffffffffffffffffff161415610fdd576040517f08c379a0000000000000000000000000000000000000000000000000000000008152600401610fd4906118bf565b60405180910390fd5b610fe681611015565b50565b600081600001549050919050565b6001816000016000828254019250508190555050565b600033905090565b60008060009054906101000a900473ffffffffffffffffffffffffffffffffffffffff169050816000806101000a81548173ffffffffffffffffffffffffffffffffffffffff021916908373ffffffffffffffffffffffffffffffffffffffff1602179055508173ffffffffffffffffffffffffffffffffffffffff168173ffffffffffffffffffffffffffffffffffffffff167f8be0079c531659141344cd1fd0a4f28419497f9722a3daafe3b4186f6b6457e060405160405180910390a35050565b600080fd5b6000819050919050565b6110f1816110de565b81146110fc57600080fd5b50565b60008135905061110e816110e8565b92915050565b60006020828403121561112a576111296110d9565b5b6000611138848285016110ff565b91505092915050565b60008060408385031215611158576111576110d9565b5b6000611166858286016110ff565b9250506020611177858286016110ff565b9150509250929050565b600073ffffffffffffffffffffffffffffffffffffffff82169050919050565b60006111ac82611181565b9050919050565b6111bc816111a1565b81146111c757600080fd5b50565b6000813590506111d9816111b3565b92915050565b600080604083850312156111f6576111f56110d9565b5b6000611204858286016111ca565b9250506020611215858286016110ff565b9150509250929050565b611228816110de565b82525050565b6000602082019050611243600083018461121f565b92915050565b611252816111a1565b82525050565b6000819050919050565b61126b81611258565b82525050565b60006080820190506112866000830187611249565b611293602083018661121f565b6112a0604083018561121f565b6112ad6060830184611262565b95945050505050565b60006020820190506112cb6000830184611249565b92915050565b6000602082840312156112e7576112e66110d9565b5b60006112f5848285016111ca565b91505092915050565b600082825260208201905092915050565b7f5472616465206973206e6f74204f70656e000000000000000000000000000000600082015250565b60006113456011836112fe565b91506113508261130f565b602082019050919050565b6000602082019050818103600083015261137481611338565b9050919050565b7f54686520616d6f756e742070616964206973206e6f7420656e6f756768000000600082015250565b60006113b1601d836112fe565b91506113bc8261137b565b602082019050919050565b600060208201905081810360008301526113e0816113a4565b9050919050565b60006060820190506113fc6000830186611249565b6114096020830185611249565b611416604083018461121f565b949350505050565b7f4578656375746564000000000000000000000000000000000000000000000000815250565b6000604082019050611459600083018461121f565b6114656020830161141e565b92915050565b7f54726164652063616e2062652063616e63656c6c6564206f6e6c79206279207060008201527f6f73746572000000000000000000000000000000000000000000000000000000602082015250565b60006114c76025836112fe565b91506114d28261146b565b604082019050919050565b600060208201905081810360008301526114f6816114ba565b9050919050565b7f43616e63656c6c65640000000000000000000000000000000000000000000000815250565b6000604082019050611538600083018461121f565b611544602083016114fd565b92915050565b600081519050611559816111b3565b92915050565b600060208284031215611575576115746110d9565b5b60006115838482850161154a565b91505092915050565b7f596f752063616e206f6e6c792073656c6c20796f7572206f776e656420746f6b60008201527f656e000000000000000000000000000000000000000000000000000000000000602082015250565b60006115e86022836112fe565b91506115f38261158c565b604082019050919050565b60006020820190508181036000830152611617816115db565b9050919050565b7f4e487b7100000000000000000000000000000000000000000000000000000000600052601160045260246000fd5b6000611658826110de565b91507fffffffffffffffffffffffffffffffffffffffffffffffffffffffffffffffff82141561168b5761168a61161e565b5b600182019050919050565b7f4f70656e00000000000000000000000000000000000000000000000000000000815250565b60006040820190506116d1600083018461121f565b6116dd60208301611696565b92915050565b7f706f7374657220696e646578206f7574206f6620626f756e6473000000000000600082015250565b6000611719601a836112fe565b9150611724826116e3565b602082019050919050565b600060208201905081810360008301526117488161170c565b9050919050565b7f4f776e61626c653a2063616c6c6572206973206e6f7420746865206f776e6572600082015250565b60006117856020836112fe565b91506117908261174f565b602082019050919050565b600060208201905081810360008301526117b481611778565b9050919050565b7f6974656d20746f6b656e20616464726573732073686f756c64206e6f7420626560008201527f20706c61696e0000000000000000000000000000000000000000000000000000602082015250565b60006118176026836112fe565b9150611822826117bb565b604082019050919050565b600060208201905081810360008301526118468161180a565b9050919050565b7f4f776e61626c653a206e6577206f776e657220697320746865207a65726f206160008201527f6464726573730000000000000000000000000000000000000000000000000000602082015250565b60006118a96026836112fe565b91506118b48261184d565b604082019050919050565b600060208201905081810360008301526118d88161189c565b905091905056fea2646970667358221220e2e98c6a6a2dae5a5df3e16f8c5e845dca9e55e3d6279b6cc3877e80321d368564736f6c634300080a0033",
  "immutableReferences": {},
  "source": "// SPDX-License-Identifier: MIT\npragma solidity >=0.8.0 <0.9.0;\n\nimport \"@openzeppelin/contracts/token/ERC721/IERC721.sol\";\nimport \"@openzeppelin/contracts/access/Ownable.sol\";\nimport \"@openzeppelin/contracts/utils/Counters.sol\";\n\n/**\n * @title MarketPlace\n * @dev Implements the simple market place. \n * Seller can open a sell order, then buyers can directly buy it.\n */\ncontract MarketPlace is Ownable {\n    using Counters for Counters.Counter;\n\n    event TradeStatusChange(uint256 id, bytes32 status);\n\n    struct Trade {\n        address poster;\n        uint256 item;\n        uint256 price;\n        bytes32 status; // Open, Executed, Cancelled\n    }\n\n    // Mapping index number to trade\n    mapping(uint256 => Trade) private _trades;\n\n    // Mapping owner address to trade count\n    mapping(address => uint256) private _totals;\n\n    // Mapping from owner to list of owned trade IDs\n    mapping(address => mapping(uint256 => uint256)) private _ownedTrades;\n\n    // NFT Contract for trading\n    IERC721 private _itemToken;\n\n    // Trade index number counter\n    Counters.Counter private _tradeIdCounter;\n\n    constructor() {}\n\n    /**\n     * @dev Set the item token contract.\n     * @param itemTokenAddress The address of the ERC721 contract.\n     */\n    function setItemToken(address itemTokenAddress) public onlyOwner {\n        require(itemTokenAddress != address(0), \"item token address should not be plain\");\n        _itemToken = IERC721(itemTokenAddress);\n    }\n\n    /**\n     * @dev Returns the total count of all trades.\n     */\n    function totalTrade() public view returns (uint256) {\n        return _tradeIdCounter.current();\n    }\n\n    /**\n     * @dev Returns the trade count for the nft owner.\n     * @param poster The address of the nft owner.\n     */\n    function totalTradeOf(address poster) public view returns (uint256) {\n        return _totals[poster];\n    }\n\n    /**\n     * @dev Returns the trade id with then specified index number of the poster.\n     * @param poster The address of the nft owner.\n     * @param index The index number.\n     */\n    function tradeOfPosterByIndex(address poster, uint256 index) public view returns (uint256) {\n        require(index < totalTradeOf(poster), \"poster index out of bounds\");\n        return _ownedTrades[poster][index];\n    }\n\n    /**\n     * @dev Returns the details for a trade.\n     * @param tradeId The id for the trade.\n     */\n    function getTrade(uint256 tradeId) public view returns(address, uint256, uint256, bytes32) {\n        Trade memory trade = _trades[tradeId];\n        return (trade.poster, trade.item, trade.price, trade.status);\n    }\n\n    /**\n     * @dev Opens a new trade. Puts item in escrow.\n     * @param itemId The id for the item to trade.\n     * @param price The amount of currency for which to trade the item.\n     */\n    function openTrade(uint256 itemId, uint256 price) public {\n        require(_itemToken.ownerOf(itemId) == msg.sender, \"You can only sell your owned token\");\n\n        uint256 tradeId = _tradeIdCounter.current();\n        _tradeIdCounter.increment();\n\n        _itemToken.transferFrom(msg.sender, address(this), itemId);\n\n        _trades[tradeId] = Trade({\n            poster: msg.sender,\n            item: itemId,\n            price: price,\n            status: \"Open\"\n        });\n\n        _ownedTrades[msg.sender][_totals[msg.sender]] = tradeId;\n        _totals[msg.sender]++;\n\n        emit TradeStatusChange(tradeId, \"Open\");\n    }\n\n    /**\n     * @dev Executes a trade.\n     * @param tradeId The id of an existing trade\n     */\n    function executeTrade(uint256 tradeId) public payable {\n        Trade memory trade = _trades[tradeId];\n        require(trade.status == \"Open\", \"Trade is not Open\");\n\n        require(msg.value >= trade.price, \"The amount paid is not enough\");\n\n        address payable poster = payable(trade.poster);\n        poster.transfer(trade.price);\n\n        _itemToken.transferFrom(address(this), msg.sender, trade.item);\n        _trades[tradeId].status = \"Executed\";\n\n        emit TradeStatusChange(tradeId, \"Executed\");\n    }\n\n    /**\n     * @dev Cancels a trade by the poster.\n     * @param tradeId The id for the trade to be cancelled.\n     */\n    function cancelTrade(uint256 tradeId) public {\n        Trade memory trade = _trades[tradeId];\n        require(\n            msg.sender == trade.poster,\n            \"Trade can be cancelled only by poster\"\n        );\n        require(trade.status == \"Open\", \"Trade is not Open\");\n        _itemToken.transferFrom(address(this), trade.poster, trade.item);\n        _trades[tradeId].status = \"Cancelled\";\n\n        emit TradeStatusChange(tradeId, \"Cancelled\");\n    }\n}",
  "sourcePath": "/home/rongwei/Work/kick-nft/packages/truffle/contracts/MarketPlace.sol",
  "compiler": {
    "name": "solc",
    "version": "0.8.10+commit.fc410830.Emscripten.clang"
  },
  "schemaVersion": "3.4.3",
  "updatedAt": "2022-01-01T14:42:25.926Z",
  "networkType": "ethereum",
  "devdoc": {
    "details": "Implements the simple market place.  Seller can open a sell order, then buyers can directly buy it.",
    "kind": "dev",
    "methods": {
      "cancelTrade(uint256)": {
        "details": "Cancels a trade by the poster.",
        "params": {
          "tradeId": "The id for the trade to be cancelled."
        }
      },
      "executeTrade(uint256)": {
        "details": "Executes a trade.",
        "params": {
          "tradeId": "The id of an existing trade"
        }
      },
      "getTrade(uint256)": {
        "details": "Returns the details for a trade.",
        "params": {
          "tradeId": "The id for the trade."
        }
      },
      "openTrade(uint256,uint256)": {
        "details": "Opens a new trade. Puts item in escrow.",
        "params": {
          "itemId": "The id for the item to trade.",
          "price": "The amount of currency for which to trade the item."
        }
      },
      "owner()": {
        "details": "Returns the address of the current owner."
      },
      "renounceOwnership()": {
        "details": "Leaves the contract without owner. It will not be possible to call `onlyOwner` functions anymore. Can only be called by the current owner. NOTE: Renouncing ownership will leave the contract without an owner, thereby removing any functionality that is only available to the owner."
      },
      "setItemToken(address)": {
        "details": "Set the item token contract.",
        "params": {
          "itemTokenAddress": "The address of the ERC721 contract."
        }
      },
      "totalTrade()": {
        "details": "Returns the total count of all trades."
      },
      "totalTradeOf(address)": {
        "details": "Returns the trade count for the nft owner.",
        "params": {
          "poster": "The address of the nft owner."
        }
      },
      "tradeOfPosterByIndex(address,uint256)": {
        "details": "Returns the trade id with then specified index number of the poster.",
        "params": {
          "index": "The index number.",
          "poster": "The address of the nft owner."
        }
      },
      "transferOwnership(address)": {
        "details": "Transfers ownership of the contract to a new account (`newOwner`). Can only be called by the current owner."
      }
    },
    "title": "MarketPlace",
    "version": 1
  },
  "userdoc": {
    "kind": "user",
    "methods": {},
    "version": 1
  }
}